:1040000000000120F55A00001D5B00001F5B00004E
:10401000215B0000235B0000255B00000000000026
:10402000000000000000000000000000275B00000E
:10403000295B0000000000002B5B00002D5B0000EE
:104040002F5B0000294C0000315300002F5B000063
:104050002F5B00002F5B00002F5B00002F5B000038
:10406000CD4700002F5B0000E54F00002F5B0000F4
:104070002F5B00002F5B00002F5B00002F5B000018
:104080002F5B00002F5B00002F5B00002F5B000008
:104090002F5B00002F5B00002F5B00002F5B0000F8
:1040A0002F5B00002F5B0000394F00002F5B0000EA
:1040B000A54700002F5B000000000000000000008A
:1040C0002F5B00002F5B00002F5B00002F5B0000C8
:1040D0002F5B00002F5B00002F5B00000000000042
:1040E00000000000000000000000000000000000D0
:1040F00000000000000000000000000000000000C0
:1041000000000000000000000000000000000000AF
:10411000000000000000000000000000000000009F
:10412000000000000000000000000000000000008F
:10413000000000000000000000000000000000007F
:10414000000000000000000000000000000000006F
:10415000000000000000000000000000000000005F
:10416000000000000000000000000000000000004F
:10417000000000000000000000000000000000003F
:10418000000000000000000000000000000000002F
:10419000000000000000000000000000000000001F
:1041A000000000000000000000000000000000000F
:1041B00000000000000000000000000000000000FF
:1041C00000000000000000000000000000000000EF
:1041D00000000000000000000000000000000000DF
:1041E00000000000000000000000000000000000CF
:1041F00000000000000000000000000000000000BF
:1042000010B5054C237833B9044B13B10448AFF310
:1042100000800123237010BD9C00002000000000DE
:10422000585F000008B5034B1BB103490348AFF3C7
:10423000008008BD00000000A0000020585F0000C2
:10424000154B002B08BF134B9D46A3F5803A002168
:104250008B460F461348144A121A01F065FE0F4BA5
:10426000002B00D098470E4B002B00D09847002021
:10427000002104000D000D48002802D00C48AFF3C7
:10428000008001F02DFE2000290000F019F901F056
:1042900013FE00BF00000800000001200000000025
:1042A000000000009C0000205810002000000000CA
:1042B000000000002DE9F04FDFF8F4B185B0DBF825
:1042C000004001F0BDF8064600F030FE714A136868
:1042D000C31AB3F5FA7F88BF1060B44221D0CBF87F
:1042E000006001F0B3F8E4B2A642074617D0DFF849
:1042F000C491694BD9F80010DFF8BC81DB4300930F
:10430000D8F800209442234620D2651CEDB2204606
:104310002C4649B9FB5C1D2B67D0AE42F0D1CBF8DF
:10432000006005B0BDE8F08F012914D0022919D131
:10433000F95CDFF888C1931E8B42CCF8001047D897
:104340000021CCF80010C9F80010E6E70023012492
:1043500018462546DDE7FB5C732B68D00021C9F8C1
:104360000010DAE70329D8D14C4BDFF850A11B68C5
:10437000DAF800C0C01A48BF80188445CDDC464931
:104380000A20087044480CF1020EBCF1000F80F8BE
:1043900001E00CDD424901EB0C0017F803E001F8E5
:1043A00001EF01339A4298BF00238142F5D13D4B82
:1043B0001B68002B3FD000F0B9FD3A4B3A4A1B680E
:1043C0001060B3B9DAF80010334801F065F8C5E7BA
:1043D00001308242314B98BF00224FF003018CBF65
:1043E00018601A60C9F8001097E70121C9F8001099
:1043F00093E700F04DFD0028FBD1DAF800100190A2
:104400000231254800F094FB00F090FD274BA3FB00
:1044100000314FF4FA72019B490902FB1101F9299D
:1044200094BFFF210021184600F042FA96E70221CE
:10443000C9F8001071E7BCF1020FBCDD184B019602
:1044400002941E4660462B46009C03E0821EA11982
:104450008A421ADD16F8012BFC2AF7D13278A32AFA
:10446000F4D17278052AF1D103930E4B03224FF455
:104470007A71152001251D6000F024FA022000F059
:10448000E7FDDAF80000039BE0E7DDE901641D4683
:1044900091E700BFC000002080030020D000002072
:1044A00081030020BC000020C8000020D34D621012
:1044B000C4000020D800002084040020D400002084
:1044C0002DE9F04F4FF080434FF0102000220121E2
:1044D000C0F80C2283B0C3F8002118461960D0F848
:1044E0000031002BFBD000F0A7F9FF21002000F0E5
:1044F000DFF9FF21012000F0DBF90325FF21022075
:1045000000F0D6F9C82000F0A3FD0021022000F041
:10451000CFF9C82000F09CFD013DEFD1DC212846F9
:1045200000F0C6F92946012000F0C2F9C821022096
:1045300000F0BEF900F08EFF8C4B8D4F186000F03C
:10454000ADFC4FF47A7000F083FD01234FF4486214
:104550004FF47A71152000F083FF864B864A187855
:104560001178DFF824B2854EDFF82CA2DFF82C9208
:10457000DFF82C824FF4612200F07EFD804BDC21BD
:104580001D605D609D60DD601D615D619D61DD613F
:104590001D625D629D62DD62022083F8305083F807
:1045A000315000F085F947F6FF720123C7F8042562
:1045B0003B60C7F8008600F0B9FC33680446002B66
:1045C00034D101F08DFADAF80030E41A40F6B8334D
:1045D0009C4202D93368012B7AD000F0D7FF10B18A
:1045E0003468002C7ED0FFF765FE664BA3FB0523E5
:1045F0001B0AC3EB0323A5EB4303B3F1FF0148BF41
:10460000C3F1FF0199F80030C9B2002B58D0022045
:1046100000F04EF9DC21012000F04AF9C7F80086CD
:1046200000F084FC33680446002BCAD000F0D4FAB2
:104630000028C8D0544800F0DBFA544B9BF800C067
:104640001A78534B9BF80110D3F848054C4B9870DF
:104650004B48002A18BF6146D5234F22013502700E
:10466000437011B34B1E022B7DD901F0FC0C464B5D
:10467000484ADC4453F8040B42F8040B9C45F9D13A
:1046800021F00303994210D03D4A1BF803001A445D
:10469000D070581C884208DA02331BF800001071F1
:1046A000994202DD1BF803305371019100F03EFE88
:1046B0000199002887D10331314800F009FE82E7D3
:1046C000012000F0F5F8DC21022000F0F1F870E79D
:1046D00000244FF448624FF47A711520346000F0E2
:1046E000BFFE7AE74FF48071274800F055FF284B52
:1046F0002348D3F848359BF8011083704F22D52307
:1047000001350270437011B34B1E022B0ED901F01C
:10471000FC041D4B1F4A5C4453F8040B42F8040B85
:10472000A342F9D121F003048C4210D0144B1BF8A2
:1047300004202344DA70621C914208DD02341BF825
:1047400002201A71A14202DD1BF804205A71019166
:1047500000F0ECFD019900287FF445AF03310848D3
:1047600000F0B6FD3FE700238EE700BF8404002081
:10477000000001400100002000000020BC000020DB
:1047800078010020818080807C020020CC00002005
:10479000001000407B010020C8000020B80000206D
:1047A0003546526E074BD3F8102152B1002206480D
:1047B000C3F800254FF0A0410068C1F80C05C3F80C
:1047C0001021704700C001406801002030B4164B32
:1047D00016481749174A00250124C3F84051DC60E8
:1047E00003780D7814680233DBB203704FF0A040F9
:1047F0009D4294BFC0F80C45C0F808454C785068FD
:104800009C424FF0A04494BFC4F80C05C4F80805BE
:104810008978926899424FF0A0438CBFC3F808256D
:10482000C3F80C2530BC704700800040DC0000203D
:10483000880400206801002019481A4A1A4B30B435
:104840004FF0A0411A2404704FF080641460C1F846
:1048500018451B2444704FF00064C1F8184554609B
:104860001C2484704FF08050C1F818050F4D9060E3
:104870000824002101220720C3F84045C3F804158D
:104880004FF48034C3F80825C3F810054FF4807046
:10489000C3F80443C3F8001228601A6030BC7047A4
:1048A00074010020680100200080004000E100E069
:1048B000022804D811FB01F1014B09121954704769
:1048C00088040020F0B4364C364BDFF8ECC0266884
:1048D000022501240427FA29CCF88050C3F8FC4FA4
:1048E000C3F80C75C3F8080550D0B1F57A7F45D1EF
:1048F0000021C3F810152B4B2B4D2C48C3F8245521
:1049000000210C4666F3070405F14435C3F8285529
:1049100000EA1440264DC3F81C5540F44170C3F81A
:1049200020550125C3F82C1560F31F44C3F83055FA
:104930004FF48475C3F81455C3F818451E24C3F802
:1049400044451C4EC3F834251B48AA2540F20714E1
:104950004FF0FF32C3F83C55C3F83845C3F8101187
:104960000824C3F80C11C3F808230222C3F8044337
:10497000316080F801130260F0BC704740F2E9300A
:10498000814206D10321C3F81015B4E7C3F81055CE
:10499000B1E7B1F5FA6F08BFC3F81045ABE700BF48
:1049A000040000200010004011223344F8FCFFFFF7
:1049B000A70DE60EF400002000E100E038B5304C11
:1049C00023682BB14CE000F0B1FA401B022802D85A
:1049D0002368002BF7D12B4BD3F85025092A03D09D
:1049E000D3F850250A2A20D12749264A274B0020F0
:1049F0000860032501200421C2F8005210601970DC
:104A0000D2F85035002BFBD0D2F850350C2BF7D014
:104A1000D2F85035042BF3D0D2F8003243F018030B
:104A20000121C2F80032216038BDD3F85025002A98
:104A3000DAD0D3F85025042A16D0D3F850250C2A02
:104A400012D000210120C3F800121A46C3F8101139
:104A50001861D2F85035002BFBD1C2F81031C3E7F2
:104A600000F064FA0546B3E7064BD3F85025042A54
:104A7000FBD0044BD3F850250C2AFBD0B4E700BF81
:104A8000F000002000100040E0000020E5000020C1
:104A900010B4224A224B23491068234A0860C3F805
:104AA0000425D3F85025032A20D0D3F85025012A15
:104AB0001CD0D3F85025022A18D0D3F85025AAB11B
:104AC000D3F85025042A1DD0D3F850250C2A19D02C
:104AD00000210120C3F800121A46C3F81011186112
:104AE000D2F85035002BFBD1C2F810310C4B0F4AD5
:104AF000112401200521C3F80042586011705DF8AF
:104B0000044B7047064AD2F85035042BFBD0044AB8
:104B1000D2F850350C2BFBD0E8E700BF0001002095
:104B200000100040E8000020DC050020E500002027
:104B300089102DE97043254D27D400F1080305F1B4
:104B40000802824288BFAB4294BF012300230B2995
:104B500094BF002303F0010301316BB340EA050366
:104B60005B0729D14C0800EBC4042A460346F3E84E
:104B700002899C42E2E80289F9D121F001039942BD
:104B800003D050F8232045F82320114C23682BB183
:104B90000EE000F0CBF9801B022802D82368002B1E
:104BA000F7D10C4BC3F80455BDE87043FFF706BFBF
:104BB00000F0BCF90646F1E7044B00EB810150F828
:104BC000042B43F8042B8142F9D1DEE7DC040020FA
:104BD000F000002000100040034A044B10681B68DE
:104BE000C01A18BF01207047E80000200001002013
:104BF00010B40A4C0022234653F8041B40F8041B4F
:104C000061780132B2EB910FF6DD054A054B12686F
:104C10001A6008465DF8044B704700BFDC050020B1
:104C200000010020E80000208B4B1A6802B11047F9
:104C30008A4BD3F80411002948D1D3F80C21A2B132
:104C40008748864A874900230360C2F80C310B78F5
:104C5000022B37D00B78012B40D00B78042B1ED0C1
:104C60000B78DBB2052B42D070477D490A60C3F850
:104C70000021C3F80421C3F80821C3F80C21C3F8AC
:104C80001021C3F81421C3F81821C3F81C21C3F85C
:104C90002821C3F83021C3F834210A607047724BD1
:104CA000C2F80435134603E0D3F85025032A03D095
:104CB000D3F85025022AF7D1684A11200523C2F8FB
:104CC00000020B70694B1B683BB11847C3F8042105
:104CD000D3F80C31002BB3D170477047644A136886
:104CE00001331360634B1B68002BEED1BCE770B43B
:104CF0005F4C614D20682D7801302060002D59D027
:104D0000D2F800345D4A1278002B62D05C4B5D48CB
:104D10000124A2421C6002F102065B4B40F3998021
:104D200004681C60B408012C1AD045685D60022C30
:104D300016D085689D60032C12D0C568DD60042CF8
:104D40000ED005691D61052C0AD045695D61062CF0
:104D500006D0072C856918BFC4699D6118BFDC6146
:104D600026F00305AE420DD0445D5C55AA4205F124
:104D7000010407DB055D1D55A24204F1010501DBBD
:104D8000405D5855FAB135480422032501240A70C4
:104D9000C0F804350246C0F800520460D2F850351D
:104DA000002BFBD0D2F8003243F01803C2F80032D7
:104DB00070BC70470B7001202E4B90601B68002B5D
:104DC000F6D070BC81E7254B0520012208709A605F
:104DD000EEE72B4B4FF0FF30012A186002F102057D
:104DE0002A48294B31DD04681C60AC08012C1AD01C
:104DF00046685E60022C16D086689E60032C12D036
:104E0000C668DE60042C0ED006691E61052C0AD02F
:104E100046695E61062C06D0072C866918BFC469F6
:104E20009E6118BFDC6125F00304A542AAD0055D90
:104E30001D55A24204F10105A4DB445D5C556C1CC8
:104E4000AA42A4BF005D18559CE704781C70012598
:104E5000F3E705781D708DE7F40000200010004096
:104E6000F0000020E5000020DC050020FC00002010
:104E700000010020F8000020E4000020EC000020E9
:104E8000E0000020BC040020DC0400209C04002082
:104E9000014B1868704700BFF0000020144B154804
:104EA000F0B4FA27C3F84075002201210427C3F8A3
:104EB0000425C3F80815C3F810754FF48037C3F8FC
:104EC00004730D4D0D4CC3F800124FF4806707605A
:104ED000402780F80A730A4E2A600A4822600A4D69
:104EE0000A4C32602A60226019600170F0BC704781
:104EF00000A0004000E100E0040100200C010020BF
:104F000014010020340100200801002010010020BD
:104F1000044B054A01219964D3F8480513681844E5
:104F2000704700BF00A0004004010020014B18683A
:104F3000704700BF0C01002010B5224BD3F8402170
:104F40007AB10021204AC3F840111068C8B91F4B3C
:104F50001B6898471E4A136893B1012B1FD0022B80
:104F600015D0184BD3F8442152B10021194AC3F887
:104F70004411136823B1184BBDE810401B68184753
:104F800010BD16480068C3F840051160DFE71349FB
:104F90000C4B0968C3F8401500231360E1E70F4B81
:104FA0000F491B68096807480B44322B38BF32236E
:104FB000C0F840350221034B1160D3F84421002A88
:104FC000DED0D2E700A0014024010020180100201B
:104FD00020010020300100202C01002028010020A9
:104FE0001C01002010B4134A1349144B144C002028
:104FF000C2F840010A682468FA320A601A6801326D
:105000001A601A68A24211D30E4C0F4A216801316E
:10501000216018601368013313601368B3F57A7F59
:1050200004D30A490B6801330B6010605DF8044B30
:10503000704700BF00A000400401002008010020CC
:10504000080000200C0100201001002014010020A5
:10505000074B1A7852B107490B6882B00344019399
:105060000A68019B9A42FBD102B07047704700BFAB
:10507000340100200C01002070B401F5E0734FF002
:10508000A044002600F5E07544F823605B4B012640
:1050900044F82560B2F5966F4FF0FF34C3F8084529
:1050A000C3F81045C3F80C05C3F8141558D0B2F571
:1050B000166F34D0B2F5965F5BD0B2F5165F54D060
:1050C000B2F5615F59D0B2F5964F5FD0B2F5E14FBE
:1050D00060D0B2F5164F55D0B2F5614F5ED0B2F543
:1050E000963F5FD0B2F5E13F61D0B2F5613F63D04A
:1050F000434B9A4265D0B2F5E12F68D0B2F5612FEB
:105100006AD0404B9A426CD03F4B9A426FD04FF4DA
:1051100086733A4903FB02F3C1F8243503E04FF4E8
:105120001D22C3F82425354B3849394C39483A4AB1
:105130000025C3F86C55C3F8004308250424C3F8C0
:1051400000550C60C3F8340512683449C3F838259B
:10515000202001221A60C3F800020A6070BC704768
:105160004FF49E22C3F82425DDE72D4AC3F82425F9
:10517000D9E72C4AC3F82425D5E74FF46C12C3F8BD
:105180002425D0E7284AC3F82425CCE7274AC3F8CA
:105190002425C8E7264AC3F82425C4E7254AC3F8CE
:1051A0002425C0E7154B244AC3F82425BBE7134B3D
:1051B000224AC3F82425B6E7104B214AC3F8242518
:1051C000B1E70E4B4FF08062C3F82425ABE70B4BE1
:1051D0001C4AC3F82425A6E7084B1B4AC3F824251C
:1051E000A1E7064B4FF08052C3F824259BE7034B01
:1051F0004FF00052C3F8242595E700BF002000407F
:1052000090D0030040420F0080841E0000E100E0C7
:1052100010010200F40800200C00002038010020DA
:105220000050270000B0130000509D0000A04E0069
:1052300000F0750000F0EB0000903A0100E0D701AB
:1052400000B0AF0300705F07A4DFBE0E194B1A4910
:1052500018880A8892B282422BD0F0B4174A188874
:10526000174C184F184D0244C4F8442508881E886E
:105270003A682D68801B002818DB09881888091AED
:105280008A42A8BF0A46C4F8482519880A4492B23F
:105290001A801A880D499542DCBF00221A80084BFB
:1052A0000020012208609A60F0BC70471988691AD2
:1052B000E6E77047400100203E010020E0060020A4
:1052C00000200040140000201C00002010000020DE
:1052D000114B1B68E3B1FF291ADCF0B40F4F3B8878
:1052E00000299BB20EDD0E4A0E4E156801380144AE
:1052F00010F8014FF4545A1C93B29D42D8BF0023BA
:105300008142F5D1084A3B80136813B9F0BC70475D
:105310007047F0BCFFF79ABF380100203E01002023
:105320001C000020E0060020100000200020704734
:105330003C4BD3F8201179B100203B4A3B49C3F8DC
:10534000200112880B889BB2934203D1384B012273
:105350001A607047FFF77ABFF0B4D3F8100110B3AA
:10536000344AC3F81011D3F83C051378324903448A
:10537000DBB2137013780F68BB422FD313789F42B0
:105380004BDA2E4B791E1D461944FE1A11F8010FF7
:1053900003F8010B1478F0188442F7DC1378DF1B54
:1053A000FFB217701BE0D3F84421AAB1214AC3F819
:1053B0004401D3F83C0513781F490344DBB2137052
:1053C00013780F68BB4213D21C4D1278154B15444D
:1053D0000122C3F834551A60F0BC7047174D13789A
:1053E000104A1D440123C2F834551360F0BC7047C5
:1053F00013789F4213DA114B791E1D461944FE1A89
:1054000011F8010F03F8010B1478F0188442F7DC4F
:105410001378DF1BFFB21770D7E7084DBEE7074DC3
:10542000F6E700BF00200040400100203E010020C0
:10543000100000203C01002018000020F40800208B
:10544000014B1878704700BF3C01002000487047AE
:10545000F4080020014B1868704700BF18000020B6
:1054600038B5154603221C46FFF72CFA074B084AAD
:105470001D601460FFF70CFB064B01220021C3F8EE
:105480000012C3F804251A6038BD00BF24000020B4
:105490006001002000D0004070B4374B1B6853BB44
:1054A000002924DD354E031D321D824288BFB342E0
:1054B00057D84B1E072B54D921F00305054403464A
:1054C000324653F8044B42F8044BAB42F9D121F079
:1054D000030399420BD0C25CF2545A1C914206DD80
:1054E0000233845CB454994201DDC25CF254244B13
:1054F000196070BC70470029F9DD224A031D141D94
:10550000844288BF934222D84B1E072B1FD921F01B
:1055100003050544034653F8044B42F8044BAB42E1
:10552000F9D121F003039942E1D0144AC55C1A4431
:105530005C1C8C421574DADA0233045D54749942AF
:10554000D5DDC35C93740E4B196070BC7047013895
:105550000D4B441810F8012F03F8012FA042F9D188
:10556000C5E70138054B441810F8012F03F8012B4B
:10557000A042F9D1BBE700BF60010020180F002056
:105580004C010020280F0020270F0020014B186835
:10559000704700BF64010020F0B41F4E1F4A3368FB
:1055A00099424FF00004A8BF1946A142146025DDBE
:1055B0001B4F031D3A1D824288BFBB4221D84B1EA0
:1055C000072B1ED921F0030505443A46034652F83D
:1055D000044B43F8044BAB42F9D121F00303994249
:1055E0000BD0FA5CC2545A1C914206DD0233BC5CFB
:1055F0008454994201DDFA5CC25433681846F0BC09
:1056000070470138064B014413F8012B00F8012FB5
:105610008842F9D1F1E700BF480100206401002071
:10562000180C00202DE9F04F85B0FFF7D5FA0028BF
:1056300040F0DC80FFF76CFCB24AB349136809689C
:10564000C41A8C4202D28342C0F09E80AF4CB04953
:1056500023680391096810605A1C8A4202942260F0
:1056600040F3958000232360FFF760FC039B0090CC
:105670001C68002C60DDA74BDFF8B4B2DFF8A0A2F5
:105680001B68019300265B4652463146A14606E060
:1056900002F1040CC14562460346414647DD009CC9
:1056A0001D68019F651B181DBD42044601F10108DC
:1056B000EED9C14540F3EC8042EA000502F1040C4A
:1056C00045EA0C051D436D0740F0D280A9F10205A3
:1056D0006D1A062D40F2CC8009F1FF39A9EB0101CA
:1056E0004FEA510E141F03EBCE0E1D1F083AF4E9CA
:1056F0000267E2E90267F5E90267E3E802677345DA
:10570000F5D121F00103994203EB080208D0511EA4
:105710005AF822305BF822204AF821304BF8212039
:10572000C1454FF00106624603464146B7DC4C4690
:1057300016B1039BC3F80090774E784D3368EC7137
:1057400000218B424FF01002C8BF9B186A70C8BF7F
:105750006B706D4B29701B68EB72190E1A1429724D
:1057600000211B126A72C5F802100122AB72AA71E5
:10577000FFF78EFB002834D169786848FFF7D8F925
:10578000029B1B6803B9336005B0BDE8F08F002AA7
:105790003FF46AAF614D604EE97103F10B022A706C
:1057A0005F4A306852F8231010240028C8BF00193F
:1057B0006C704FF000024FEA116464F307024FEA85
:1057C000114464F30F22C8BF68700C0A554864F393
:1057D000174261F31F62C15CC5F8022001232972E0
:1057E000AB71FFF755FB0028FBD1C5E74E4C2046B7
:1057F000FFF7FEF94D4B05280546D3F800347FF737
:1058000019AF002B3FF416AF404B02931A46D4F861
:10581000023016681BBA002E3FD1002B3FF40AAFAE
:105820003B4A039214683F2C3FF704AF002CDFF88B
:10583000F0A011DDDAF8002093423FF4FBAEAAF1AC
:10584000040000EB8400524604E052F8041F8B422F
:105850003FF4F0AE8242F8D14AF82430FFF766FBFD
:105860000399334A0B6842F8240001330B60E1E6E8
:10587000304901EB890500E00434516842F8041B0B
:1058800059681960AA422346F6D109F1FF3947E762
:1058900009F1FF3902F1040C42E7013E204A52F8B7
:1058A00026209A427FF4C6AEFFF740FB2049224AE9
:1058B000224B41F82600224E156025F003000122FC
:1058C0001A6020443246234653F8041B42F8041B56
:1058D0008342F9D125F003039D420BD0E25CF254E0
:1058E0005A1CAA4206DA0233A15CB1549D42C4BFDD
:1058F000E25CF254029B227819680A4B0B4403F8CD
:10590000012C97E6580100202400002050010020BF
:1059100044010020200000204C010020180F00202E
:10592000180D002018100020180B00200010004057
:10593000180E0020140D00204801002064010020F2
:10594000180C00202DE9F04383B0FFF7EFFA05466D
:10595000FFF742F910B903B0BDE8F083534C20467D
:10596000FFF746F9524BD3F800340646002BF2D02D
:105970000528F0DDD4F802304E4A94F808901268F9
:105980001BBA002B51D1DFF854814B48D8F80010D6
:105990000068691A814240F287804849484F0D608B
:1059A000D7F808054749C7F80031A1FB00135B0988
:1059B000642101FB1303612B434F14D94FF0100CEA
:1059C000130E22FA0CF1BB70130AF9703B713846C2
:1059D000012361467A7101923B70BB7187F801C067
:1059E000FFF7A6F8019A2AB33849394A0E60012117
:1059F00026F0030011602D4B334A204453F8041B5A
:105A000042F8041B8342F9D126F003039E42A2D040
:105A1000E25CFA545A1CB2429DDA0233A15CB954DA
:105A20009E4298DDE25CFA5495E79A4293D1DFF802
:105A3000AC80254F2549264A0E60012126F003003F
:105A400011601A4B204A204453F8041B42F8041BEF
:105A50008342F9D126F003039E420BD0E25CFA5454
:105A60005A1C964206DD0233A15CB9549E42C4BF63
:105A7000E25CFA54174C114A2368C8F80050002B16
:105A800015607FF768AF144D2B784B453FF463AF3B
:105A9000FFF7FEF900287FF45EAF2168284603B0C7
:105AA000BDE8F043FFF744B8074F9CE7180B002010
:105AB000001000402C000020280000205C01002085
:105AC00000D000401F85EB51180C00204801002039
:105AD000640100204C010020180F00205401002018
:105AE000034B1B680BB1FFF79DBDFFF72BBF00BF3A
:105AF000600100200649074A074B9B1A03DD043B5F
:105B0000C858D050FBDC00F013F8FEF799FB0000FA
:105B1000645F0000000000209C000020FEE7FEE71C
:105B2000FEE7FEE7FEE7FEE7FEE7FEE7FEE7FEE74D
:105B300030B4B04B1B78062B1BD0AF4AD2F888305C
:105B400043F47003C2F88830BFF34F8FBFF36F8FF9
:105B50004FF01023D3F80022002AC0F27581D3F849
:105B60000432002BC0F27081A44BA54A1A6030BCED
:105B70007047A44B1B681D07DFD1A34B1B6803F0C4
:105B8000F002302A00F0908003F0E003402B00F098
:105B90008B809D4B1B6803F0F003302B00F0958049
:105BA000994B1B6803F0F002302A6CD003F0E0033D
:105BB000402B68D0944B1B6803F0F003302B00F0AF
:105BC0000981914B1B6803F0F002302A47D003F0A3
:105BD000E003402B43D08C4B1B6803F0F003302BC9
:105BE00000F0EA80884B1B6803F0F003302B00F0D4
:105BF000CC80854B1B6803F0F003502B73D0824B95
:105C00001B6803F0F002302A18D003F0E003402BA9
:105C100014D07D4B1B6803F0F002302A03D003F050
:105C2000E003402B89D14FF08043D3F80024D20702
:105C300044BF6FF00102C3F800247EE7734B6D4A46
:105C40001B681278724903F04F03062A0B607FF439
:105C500074AF6C4B1B6819077FF46FAFD9E7654AC7
:105C600011784FF0804300220629C3F80C21C3F8B5
:105C70001021C3F838257FF460AF624B1B681B0707
:105C80007FF45BAFA7E7634B5A4A1B6812786249FF
:105C9000C3F34233062A0B607FF44FAF594B1B68A6
:105CA00019077FF44AAF85E75C4B524A1B681278AC
:105CB0005B49C3F30423062A0B607FF43EAF514BCC
:105CC0001B681C077FF439AF63E74A4B554A1B78C2
:105CD00055491160062B7FF430AF4A4B1B681807FB
:105CE0007FF42BAF5CE74FF08052504BD2F8041496
:105CF000C3F82015D2F80814C3F82415D2F80C14F0
:105D0000C3F82815D2F81014C3F82C15D2F81414BF
:105D1000C3F83015D2F81814C3F83415D2F81C148F
:105D2000C3F84015D2F82014C3F84415D2F824144F
:105D3000C3F84815D2F82814C3F84C15D2F82C141F
:105D4000C3F85015D2F83014C3F85415D2F83414EF
:105D5000C3F86015D2F83814C3F86415D2F83C14AF
:105D6000C3F86815D2F840142248C3F86C15D2F86D
:105D700044140278C3F87015062A7FF4DEAE214B76
:105D80001B6818077FF4D9AE39E71A4B284C1B78EB
:105D900028492948294A0525256001250D60002448
:105DA0003F21062B046011607FF4C7AE154B1B68C2
:105DB0001C077FF4C2AE1CE70E4B214A1B7803215F
:105DC000062B11607FF4B9AE0E4B1B681D077FF4E4
:105DD000B4AE07E71B4A0749D368097823F08073FC
:105DE0000629D3607FF4A9AE064B1B681A077FF41F
:105DF000A4AEE6E6E00F00F000ED00E03000002089
:105E00000090D003E40F00F0E80F00F058020010FB
:105E1000E40E0040440200103C0500402403001042
:105E20004035014074C007400DF0ADBA00C00040DD
:105E30001056004088560040185600401456004046
:105E4000A0050040F0ED00E0184A0123C2F8043537
:105E5000D2F80034002BFBD04FF010231521134A49
:105E6000C3F80012D2F80034002BFBD04FF01023FF
:105E700015210E4AC3F80412D2F80034002BFBD0CF
:105E800000230A49C2F80435D1F80034002BFBD0B6
:105E9000BFF34F8F0649074BCA6802F4E062134311
:105EA000CB60BFF34F8F00BFFDE700BF00E00140B4
:105EB00000ED00E00400FA0508B5074B044613B1F5
:105EC0000021AFF30080054B1868836A03B198473F
:105ED000204600F031F800BF00000000545F0000D1
:105EE00070B50D4D0D4C641BA4100026A64209D1BF
:105EF0000B4D0C4C00F022F8641BA4100026A642A7
:105F000005D170BD55F8043B98470136EEE755F8CA
:105F1000043B98470136F2E79400002094000020EB
:105F2000940000209800002002440346934200D1D0
:105F3000704703F8011BF9E7FEE700BFF8B500BFA3
:105F4000F8BC08BC9E467047F8B500BFF8BC08BC5A
:0C5F50009E467047340000200000000056
:085F5C00E4E2FF7F01000000F8
:105F640004050000FF000000040000000100000020
:105F740001000000400000000001000000020000D9
:105F840030750000E8030000B80B00004433221110
:105F94000090D0030000000000000000000000009A
:105FA40000000000000000000000000000000000ED
:105FB40000000000000000000000000000000000DD
:105FC40000000000000000000000000000000000CD
:105FD40000000000000000000000000000000000BD
:105FE40000000000000000000000000000000000AD
:0C5FF400000000002542000001420000F7
:0400000300005AF5AA
:00000001FF
